:020000040800F2
:1000000000800020C5000008891B0008B1400008DE
:10001000D1400008E3000008F900000800000000DB
:100020000000000000000000000000004140000847
:10003000110100080000000011410008DB29000840
:10004000C1000008C1000008C1000008C10000088C
:10005000C1000008C1000008C1000008C10000087C
:10006000C1000008C1000008C1000008C10000086C
:10007000C1000008C1000008C1000008C10000085C
:10008000C1000008C1000008C1000008C10000084C
:100090000000000000000000000000000000000060
:1000A0000000000000000000000000000000000050
:1000B000C100000800000000C1000008C1000008E5
:1000C000FEE7FFFF14480047FEE71EF0040F0CBFD9
:1000D000EFF30880EFF309807146104A1047FEE7FE
:1000E000FEE71EF0040F0CBFEFF30880EFF309806A
:1000F00071460B4A1047FEE71EF0040F0CBFEFF3EA
:100100000880EFF309807146064A1047FEE7FEE7D4
:10011000FEE7FEE77047000029010008DF00000845
:10012000F70000080D01000800B583B002F064FC80
:10013000224B234A03E01168196004330432214939
:100140008B42F8D3204B02E000221A6004331F4A8E
:100150009342F9D302F05CFC694601A802F0B4FCBA
:100160001B4D1C4BED1AAD10002404E0194B53F845
:10017000243098470134A542F8DC174D174BED1A8F
:10018000AD10002404E0154B53F824309847013497
:10019000A542F8DC0099019800F0FEF80546104CE5
:1001A000104BE41AA41004E0013C0E4B53F8243029
:1001B0009847002CF8DC284602F03EFD00000020A5
:1001C000F47D0008BC000020BC000020900200204C
:1001D000FC010008FC0100080C020008FC010008FA
:0801E0000C0200080C020008EB
:1001E800F47D000800000020BC000020BC000020B6
:1001F80090020020E9020008810700089113000816
:04020800EB290008D6
:10021000F8B500250CE0194B2360E58626874FF4DE
:10022000807301221E21204601F036F901352DB2DE
:10023000012D22DC6B1C03EB8303C3EB03139A0039
:10024000C83216B23C2001F0BFFE044607460C4BF4
:1002500047F8083B0022426182610272C26002617B
:100260001346084901F0C2F8D5E7384600F02AFAEB
:10027000204601F0ADFE04F037FAF8BD5C6E0008D0
:10028000D06F00089C6E0008012800D070474FF620
:10029000FF739942FAD100B585B001214FF4800077
:1002A00003F050FA4FF44073ADF8043000238DF89A
:1002B0000C308DF80B3001228DF80E208DF80620C1
:1002C0008DF80A308DF809308DF808308DF8073038
:1002D00003238DF80D3001A9024803F049F805B059
:1002E0005DF804FB00000B4008B54FF6FF710120DC
:1002F000FFF7CAFF08BD00BF70B5044603E0B4F9BC
:10030000380001F0EBF8B4F936309BB2012BF6D887
:10031000074A32F81360074D3146284603F0CEF8FD
:10032000B0FA80F252093146284603F0EDF8E6E7CC
:10033000686E000800000B4010B50446024B0360D5
:1003400001F079F8204610BD5C6E000810B5044637
:10035000044B036001F06FF8204601F039FE20469F
:1003600010BD00BF5C6E000810B50446024B036070
:1003700001F014FB204610BD746E000810B5044651
:10038000044B036001F00AFB204601F021FE2046E9
:1003900010BD00BF746E000800B583B001F02AFBE9
:1003A0000121684601F007FB0B4B0093684601F002
:1003B0000DFB07E002A8084B40F8083D01F0EEFAFB
:1003C00004F092F902A8044B40F8083D01F0E6FA67
:1003D000002003B05DF804FB746E0008012800D013
:1003E000704708B54FF6FF73994200D008BD074823
:1003F0000023436083600361054A02604361037622
:10040000044A054904F0ABFAF0E700BFC000002041
:10041000B47100086801002089230008062817D855
:10042000DFE800F01B04070A0D101300B9B11248F1
:100430007047B1B111487047A9B111487047A1B1D7
:100440001048704799B11048704791B10F487047F4
:1004500009B90F4870470F4870470F4870470F4859
:1004600070470F4870470F4870470F4870470F4854
:1004700070470F48704700BF586F0008506F000862
:10048000486F0008406F0008386F0008306F0008A0
:10049000186F0008286F0008AC6E0008B06E0008E6
:1004A000B86E0008D06E0008E86E0008F86E00080C
:1004B000086F000870B5064606F07EF804F03EFDB1
:1004C00000224FF0785304F0A3FD04460D46304659
:1004D00004F034FD22462B4604F09AFD0022034B23
:1004E00004F0E0FB04F0A6FF70BD00BF0000F03F89
:1004F0000CB410B582B00C4604AB53F8042B019336
:1005000006F0E4F8A04204D202B0BDE8104002B008
:100510007047034B186803689B6810219847F3E7FE
:10052000040100200EB430B582B00446164B1B699E
:100530005BB1164B186803689B68112198472046E9
:1005400002B0BDE8304003B07047114D4FF0FF31AD
:10055000284601F0A3FFEB6983B106AB0193059A2E
:1005600080210B48C06906F0B1F87F28E7DD074B12
:10057000186803689B6810219847E0E7802001F025
:100580004BFDE861E9E700BFE00000200401002026
:10059000C000002010B50446024802F003F82046CF
:1005A00010BD00BFC00000202DE9F8430446DAB1B9
:1005B000894617460068D0B106F054F8064607EBA6
:1005C000060808F1010001F027FD05468EB93A46FC
:1005D0004946A81905F01BFF002305F808302068DC
:1005E00008B101F01DFD25602046BDE8F883002616
:1005F000E5E73246216805F00AFFE8E7044B1B688F
:1006000000FB03F0034BA3FB00308009704700BFE1
:1006100000000020D34D6210034B1A68034BB3FB5C
:10062000F2F300FB03F070470000002040420F008F
:10063000034688420BD210B41C68064A944202D189
:1006400004338B42F8D3181A801010BC7047001A7C
:1006500080107047C13F2EA5884203D2024B036031
:100660000430F9E7704700BFC13F2EA508B54268C6
:10067000C168103002F03EF9022805D001280FD0E1
:10068000032815D0012008BD0D4B186803689B682E
:1006900009219847022801D00120F4E70020F2E761
:1006A000074B186803689B68082198470120EAE710
:1006B000034B186803689B68072198470120E2E70D
:1006C0000401002010B5044603781BB9806808B106
:1006D00001F0A6FC002323706360A360E360236144
:1006E00010BD70B504460D461646FFF7EBFF8DB101
:1006F000222D10D91021331C18BF01232370A660AE
:100700002A46204602F03AF90022E16804F110007E
:1007100002F008F970BD0021EDE7F0B583B00446A2
:100720000D4616461F4683684BB1089B00933B4617
:1007300032462946204602F003F903B0F0BD0022FC
:10074000FFF7CFFFF1E708B50146024800F074FD5E
:1007500008BD00BFE000002008B502F04CF80346D9
:1007600038B153B900231A461946184603F0CCFC99
:1007700008BD02F02DF80346F3E702F007F8F7E7AB
:1007800008B54FF6FF710120FFF728FE08BD00BF36
:10079000704708B501F0FAFF08BD70B582B0437E1E
:1007A000002B60D016460D46044602F011F818B131
:1007B00002F018F800285AD002F01DF8034680B164
:1007C0009BB101F093FF019021694B7F012B3FD832
:1007D00095B9002E41D033681B68022230469847F5
:1007E0003DE001F0F5FF0346EAE7244B1868036893
:1007F0009B6804219847E4E702234B772369002292
:1008000083F834202369DE62B5F1FF3F0ED14FF04B
:10081000FF302369186225692246136853B1286A9C
:10082000196A884206D903F12402F6E72846FFF741
:10083000E5FEEEE76B621560A37E0BB9E36923B1B9
:10084000012384F82030002403E001F093FF08E046
:100850000624019801F054FF06E00124F9E7012481
:10086000F7E70024F5E70624204602B070BD022415
:10087000FAE7019801F044FF03F036FF040100207D
:1008800030B583B004460D4601F0B5FF034650B1C4
:100890006BB101F02BFFA368AB63A56001F030FFE3
:1008A000002003B030BD01F093FF0346F0E7034B97
:1008B000186803689B6804219847EAE70401002050
:1008C000F0B583B005460C46174601F094FF034689
:1008D00088B1A3B101F00AFF0190637F032B4FD0D1
:1008E0002E69A64218D02A4613687BB19C420DD0CF
:1008F00003F12402F8E701F06BFF0346E9E7244B1C
:10090000186803689B6804219847E3E70BB1636AA2
:100910001360637F012B03D9204600F084FE0CE0B6
:100920002A1D136823B19C4202D003F12402F8E788
:10093000002BF1D0636A1360EEE705F1080213683B
:1009400023B19C4202D003F13802F8E70BB1A36B4C
:1009500013600323637727B11CB123685B682046CB
:100960009847A64206D00024019801F0C9FE20460F
:1009700003B0F0BD00232B6101F0A6FF0024F3E7D4
:100980000624F1E7019801F0BBFE03F0ADFE00BFC5
:100990000401002000220260426002738260026152
:1009A0004261027642768276C26180F8202001227E
:1009B00080F821207047012800D070474FF6FF7360
:1009C0009942FAD110B5054C2046FFF7E3FF044ADF
:1009D0000449204603F0C3FF10BD00BFE000002023
:1009E000680100209107000808B501F0C3FE08BDAA
:1009F00070B505460C46164601F0EAFE78B984B19A
:100A00006B7E2BB9324621462846FFF759FF70BD51
:100A1000052332462146284603F076FBF7E70220FD
:100A2000F5E70520F3E708B5024800220169FFF762
:100A3000DFFF08BDE000002070B504460D461646F5
:100A400001F0D9FE034668B183B1324629462046FB
:100A5000FFF7A3FE28B9236993F83430022B0CD09A
:100A6000002070BD01F0B4FE0346EDE701233246DD
:100A70002946204603F048FBECE70120F1E738B5B2
:100A80004B7F022B01D0002038BD81F83420002399
:100A90004B7703698B420BD00430036833B10D7F71
:100AA0001C7FA54202D803F12400F6E74B620160E7
:100AB000C86A38B10C4603681B6898470023E36294
:100AC0000120E1E70120DFE730B583B005460C46A1
:100AD00001F091FE034658B173B101F007FE019099
:100AE0002A4613687BB19C420DD003F12402F8E73B
:100AF00001F06EFE0346EFE71A4B186803689B6827
:100B000004219847E9E70BB1636A1360012221468B
:100B10002846FFF7B4FF98B195F8213093B12B69BF
:100B20001A7F237F9A4214D2AB7E0BB9EB6923B1B3
:100B3000012385F82030002405E001F01BFE0AE0C7
:100B4000062400E00024019801F0DAFD204603B0FD
:100B500030BD0024F7E70024F5E7019801F0D0FD4F
:100B600003F0C2FD0401002038B5437ED3B10D4629
:100B7000044601F048FEB8B1C5B101F03CFE0346A1
:100B800038B153B9062300222946204603F0BCFAA7
:100B900009E001F01DFE0346F3E729462046FFF772
:100BA00093FF00E0062038BD0320FCE70520FAE7AC
:100BB0003C298CBF002001207047F8B505460C4643
:100BC00017461E4601F004FE50B984B3314628464C
:100BD000FFF7EEFF68B3637F032B07D00620F8BD55
:100BE00001F000FE0028F0D10220F8E7124A079930
:100BF000204600F044FCE7632677022363779DF8E4
:100C00001830A37701F0F7FD034638B153B9032339
:100C100000222146284603F077FAE0E701F0D8FDEC
:100C20000346F3E721462846FFF72AFED7E70520CB
:100C3000D5E70520D3E700BF270A0008704790F8E2
:100C400020302BB9026972B1517F012902D00123F2
:100C50001846704741680029FAD0107F0A7F9042F9
:100C6000F6D80123F4E70123F2E710B582B0044679
:100C700001F0C1FD034698B1B3B101F037FD019019
:100C80002046FFF7DCFF30B1A37E0BB9E36993B1D7
:100C9000012384F82030019801F032FD02B010BD2C
:100CA00001F096FD0346E7E7074B186803689B6869
:100CB00004219847E1E701F05DFDECE7019801F0C0
:100CC0001FFD03F011FD00BF04010020437E002B37
:100CD0003FD010B5044661BBC36943B1013BC3615A
:100CE000002B38D190F820304BB9002029E01B4B65
:100CF000186803689B680A219847062021E0437E14
:100D00000BB900201DE001F076FD034640B15BB950
:100D1000042300221146204603F0F6F9002010E0DB
:100D200001F056FD0346F2E72046FFF79EFF002044
:100D300007E001238376C3690133C36113B1002047
:100D4000A07610BD054B186803689B68062198477C
:100D5000F5E7062070470020F3E700BF04010020FC
:100D60000A7790F8213003B97047437E002BFBD0FF
:100D700010B5044601F03FFD034638B153B90423D2
:100D800000221146204603F0BFF910BD01F020FDFE
:100D90000346F3E72046FFF768FFF6E730B583B078
:100DA00005460C4601F027FD034668B183B101F00A
:100DB0009DFC01902A1D13688BB1207F197F88420A
:100DC0000DD803F12402F6E701F002FD0346EDE73A
:100DD000164B186803689B6804219847E7E763622D
:100DE000146095F821300BB16B7E2BB9019801F09E
:100DF00087FC002003B030BD01F0FDFC034638B194
:100E000053B9042300221146284603F07DF9EDE78B
:100E100001F0DEFC0346F3E72846FFF726FFE5E78F
:100E2000019801F06DFC03F05FFC00BF040100209D
:100E3000F8B505460C4616461F4601F0C9FC50B9E8
:100E40006CB331462846FFF7B3FE50B3637F032BE4
:100E500007D00620F8BD01F0C5FC0028F0D1022023
:100E6000F8E7114A0699204600F009FB267700238F
:100E70006377A77701F0BFFC034638B153B902236B
:100E800000222146284603F03FF9E3E701F0A0FCE9
:100E90000346F3E721462846FFF780FFDAE70520FF
:100EA000D8E70520D6E700BF270A000870B582B052
:100EB000044601F08DFC68BB237E6BBB636101F0CF
:100EC00047FC60B3382001F07FF805460646154B15
:100ED00046F8083B0022426182610272C2600261F0
:100EE0001346114900F082FA104B2B602223009325
:100EF00000231A4629462046FFF79AFF012323764E
:100F000000200AE03046FFF7DDFB284601F060F8DC
:100F100003F0EAFB022000E0062002B070BD0620CC
:100F2000FBE700BFD06F0008986F00088C6F0008C7
:100F3000F0B583B006460C4615461F4601F05BFC33
:100F4000034698B1B3B101F0D1FB0190637F032B4D
:100F500050D0227FAA424FD025770BBB321D136899
:100F60007BB19C420DD003F12402F8E701F030FC84
:100F70000346E7E7254B186803689B6804219847F8
:100F8000E1E70BB1636A1360321D136833B1207F50
:100F9000197F884202D803F12402F6E763621460E5
:100FA00027B9236B13B11D731B69FBE796F821303A
:100FB00033B90024019801F0A3FB204603B0F0BD33
:100FC000737E0BB90024F5E701F015FC034638B138
:100FD00053B9042300221146304603F095F807E088
:100FE00001F0F6FB0346F3E73046FFF73EFE05E06F
:100FF0000024DFE70624DDE70024DBE70024D9E74F
:10100000019801F07DFB03F06FFB00BF040100209D
:1010100008B50023FFF78CFF08BD437E13B370B5FE
:1010200016460D46044601F0D3FBE8B9F5B131464A
:101030002046FFF7BDFDD8B101F0DDFB034638B116
:1010400053B9072332462946204603F05DF80CE0E9
:1010500001F0BEFB0346F3E7324629462046FFF780
:10106000D7FF02E006207047022070BD0520FCE794
:101070000520FAE70369F3B130B45A7F012A0CD096
:1010800005696B7F73B9021D13684BB12C7F197F03
:101090008C4205D803F12402F6E700225A77EFE7E5
:1010A0006B62156043680BB15A6A426003610122AA
:1010B0005A7730BC704743680BB15A6A426003618B
:1010C00001225A77704738B504460D4601F080FB7F
:1010D000D0B9237ED3B1637ED3B901F08CFBC8B104
:1010E00001F0B8FBC0B184F821502046FFF7C2FFE1
:1010F000012363762369997FB1FA81F149099869DF
:1011000001F0C5FB002000E0022038BD0620FCE70E
:101110000620FAE70620F8E70620F6E708B5036898
:1011200003E0012283F835209B6B5BB1DA6B8A42C6
:10113000FAD15A7F022AF4D1DA6A002AF1D10122C7
:101140000271EEE7037913B10F4B5B7E03B908BD63
:101150000D4B012283F820205B7E002BF7D001F09D
:101160004AFB034638B153B904230022114606480E
:1011700002F0CAFFEBE701F02BFB0346F3E702485E
:10118000FFF773FDE3E700BFE000002000B583B088
:1011900001F031FB034630B14BB101F0A7FA0190E9
:1011A00001F01CFB0AE001F013FB0346F4E70B4BD4
:1011B000186803689B6804219847EEE701460848D1
:1011C000FFF7ACFF019801F09BFA03B05DF804FB58
:1011D000019801F095FA03F087FA00BF040100209E
:1011E000E800002038B5054604680BE00BB1636ADF
:1011F0001360032221460F48FFF741FC002384F8C7
:101200003530A46B94B194F83530002BF9D0637F5E
:10121000022BF6D1E36A002BF3D1064A1368002BA8
:10122000E4D09C42E2D003F12402F7E700232B71C3
:1012300038BD00BFE000002030B583B004460D4645
:1012400001F0D9FA034680B19BB101F04FFA019049
:10125000002384F82030236903B19D61237B7BB197
:1012600004F10800FFF7BEFF0AE001F0B1FA0346FF
:10127000EAE70F4B186803689B6804219847E4E786
:101280002046FFF7F7FE2369987FB0FA80F0400907
:1012900001F0F2FA04E0019801F032FA03F024FAC6
:1012A00023699C69019801F02BFA204603B030BDF8
:1012B000040100204368002113B101315B6AFBE7A0
:1012C0000368002213B101325B6AFBE70A44036939
:1012D00013B10120104470470020FBE7036800E0D1
:1012E0005B6A33B11A6AB2F1FF3FF9D0013A1A6270
:1012F000F6E7704730B583B0044601F07CFA034648
:10130000B0B1CBB101F0F2F90190636901336361CF
:10131000657E45B32046FFF7E1FF216899B10B6A6E
:101320008BB94B6A236002222046FFF7A8FBF4E743
:1013300001F04EFA0346E4E7104B186803689B6817
:1013400004219847DEE7A37E4BB9E3693BB994F8E3
:10135000215045B12046FFF772FC054603E001230A
:1013600084F820300025019801F0CAF9284603B01E
:1013700030BD019801F0C4F903F0B6F90401002072
:1013800008B50248FFF7B6FF08BD00BFE000002027
:1013900008B54FF6FF710120FFF70DFB08BD00BF38
:1013A000FEE7000010B50446024B036000F043F86E
:1013B000204610BD8C6F000810B50446044B036036
:1013C00000F039F8204600F003FE204610BD00BFB3
:1013D0008C6F00080430036823B1994202D003F1F6
:1013E0002800F8E70BB18B6A0360704738B50446F4
:1013F0000D4611461A460830FFF773F91E2323776E
:10140000032363770123A377002323626362A3622C
:10141000E362236384F8343015B90023636038BD78
:10142000284605F01FF9013000F0F6FD60602946FE
:1014300005F010F9F3E710B504460A4B0360437F4B
:10144000032B09D1606808B100F0EAFD04F108003F
:10145000FFF738F9204610BD002201460248FFF789
:10146000C7FAEFE7D06F0008E000002010B504468F
:10147000FFF7E1FF204600F0ABFD204610BD00B5B0
:1014800083B00092034B02460830FFF746F903B0E1
:101490005DF804FB8119000800B583B00093134682
:1014A0000A4601460248FFF7C3FC03B05DF804FB9F
:1014B000E000002008B5002201460248FFF798FA34
:1014C00008BD00BFE000002008B501220146024827
:1014D000FFF78EFA08BD00BFE000002008B500222B
:1014E00001460248FFF7A8FA08BD00BFE00000204F
:1014F00010B504462368DB68204698474FF0FF305C
:10150000FFF7ECFFF6E708B5FFF778F8034B5A69E9
:10151000024B5B699B1A8342FAD308BDE0000020AE
:1015200008B50A4601460248FFF777FD08BD00BF2F
:10153000E0000020014B1869704700BFE000002068
:1015400008B50C4B5B7E03B908BD01F054F90346A6
:1015500038B153B9042300221146064802F0D4FDE5
:10156000F2E701F035F90346F3E70248FFF77DFBA8
:10157000EAE700BFE0000020C162704770B5054691
:101580000E460B4B18692A1D136833B1047F197F6F
:101590008C4202D803F12802F6E7836210602946E4
:1015A000FFF7EAFF2A4631460148FFF7F6F870BD1B
:1015B000E0000020036B0B61016370470023C362EE
:1015C000704710B5014644680CB1A36A43602046D9
:1015D000FFF7F4FF21460248FFF7C6FA10BD00BF2F
:1015E000E0000020022A00D0704708B5021D1368F1
:1015F00023B1994202D003F12802F8E70BB18B6ABC
:1016000013600B4601461846FFF7D8FF08BD30307F
:10161000036823B1994202D003F11000F8E70BB13F
:101620000B690360704710B50446C06A28B10368AF
:101630005B68214698470023E362206B20B1036872
:101640005B6821469847F8E710BD70B582B0044644
:1016500015463D2900F2CA80DFE801F01FC8C8C85E
:10166000C8C8C8C8C8C834C8C8C8C8C8C8C8C8C88E
:1016700049C8C8C8C8C8C8C8C8C85EC8C8C8C8C8D3
:10168000C8C8C8C873C8C8C8C8C8C8C8C8C888C86F
:10169000C8C8C8C8C8C8C8C89DB28AB97D4D206826
:1016A00008B100F0BDFC002323603DB1284604F0E2
:1016B000D9FF024629462046FEF776FF02B070BDEC
:1016C000754DECE78AB9754D206808B100F0A8FCAB
:1016D00000232360002DF1D0284604F0C3FF02460A
:1016E00029462046FEF760FFE8E76D4DECE78AB932
:1016F0006C4D206808B100F093FC00232360002D9E
:10170000DCD0284604F0AEFF024629462046FEF70C
:101710004BFFD3E7644DECE78AB9644D206808B10C
:1017200000F07EFC00232360002DC7D0284604F083
:1017300099FF024629462046FEF736FFBEE75C4D7C
:10174000ECE78AB95B4D206808B100F069FC002322
:101750002360002DB2D0284604F084FF02462946BB
:101760002046FEF721FFA9E7534DECE78AB9534D18
:10177000206808B100F054FC00232360002D9DD0A8
:10178000284604F06FFF024629462046FEF70CFF6C
:1017900094E74B4DECE78AB94A4D206808B100F058
:1017A0003FFC00232360002D88D0284604F05AFF18
:1017B000024629462046FEF7F7FE7FE7424DECE75A
:1017C00092B9424D206808B100F02AFC0023236042
:1017D000002D3FF473AF284604F044FF024629462B
:1017E0002046FEF7E1FE69E7394DEBE70A46394945
:1017F00001A8FEF797FE384B1E68002300933EB108
:10180000304604F02FFF024631466846FEF7CCFE14
:1018100001A8FEF7BFFED5B9206808B100F000FCB2
:101820000023236009222D492046FEF7BDFE009DBE
:101830003DB1284604F016FF024629462046FEF731
:10184000B3FE012226492046FEF7AEFE0FE0009DC2
:10185000206808B100F0E4FB002323603DB1284676
:1018600004F000FF024629462046FEF79DFE009840
:1018700000283FF423AF00F0D3FB1FE701A8FEF7D9
:1018800089FE02F031FF009808B100F0C9FB02F0B8
:101890002BFF00BF647000086070000870700008C3
:1018A0006C70000878700008747000088870000878
:1018B000847000089470000890700008A4700008FC
:1018C000A0700008B0700008AC700008C07000087C
:1018D000BC700008C8700008DC000020CC70000854
:1018E000D870000810B50446606828B1836A636048
:1018F0002146FFF763FEF7E710BD38B504460546FD
:101900000E4B45F8083B0022426182610272C260C0
:1019100002611346FFF76AFD04E02846FEF7D2FE97
:1019200002F0E2FE064B2360002384F835304FF0CE
:10193000FF32E263A363204638BD00BFD06F0008CA
:10194000E46F000810B582B0049C01940093134624
:101950000A4601460248FFF730F902B010BD00BF49
:10196000E0000020014B5869704700BFE0000020F4
:1019700008B5FFF7B3FD08BD08B5FFF7C4FD08BD06
:1019800010B5044603689B6898472046FFF792FD10
:1019900010BD000000487047DC700008704711B1AE
:1019A0000E2900D001BE0020704710B5044600F09B
:1019B0000FFB204610BD034A02600171024A10600D
:1019C000704700BFE87000080401002010B504460D
:1019D00000F074FE0648FFF769FA00B110BD2368F5
:1019E000DB682046984721790148FFF76CFBF5E753
:1019F000E0000020034B1B7913B9024B01221A713E
:101A0000704700BF04010020014B5869704700BFB8
:101A1000E000002010B50446524B1B7ABFF35B8FE9
:101A200013F0010F3ED04F4B1B7CBFF35B8F13F0C5
:101A3000010F43D04B4B1B7EBFF35B8F13F0010FA5
:101A400048D0484B93F82030BFF35B8F13F0010F61
:101A50004CD0444B93F82830BFF35B8F13F0010F49
:101A600050D0404B93F83030BFF35B8F13F0010F31
:101A700054D03C4B93F83830BFF35B8F13F0010F19
:101A800058D0384B93F84030BFF35B8F13F0010F01
:101A90005CD000F014FE334B186803689B68022189
:101AA000984710BD304802F048FF0028BBD023689B
:101AB0002C48C360083002F04FFFB4E72B4802F017
:101AC0003CFF0028B6D0636826484361103002F01E
:101AD00043FFAFE7264802F030FF0028B1D0A368EB
:101AE0002048C361183002F037FFAAE7214802F00E
:101AF00024FF0028ADD0E3681A484362203002F08A
:101B00002BFFA6E71C4802F018FF0028A9D0236984
:101B10001448C362283002F01FFFA2E7174802F002
:101B20000CFF0028A5D063690E484363303002F0F3
:101B300013FF9EE7124802F000FF0028A1D0A3691E
:101B40000848C363383002F007FF9AE70D4802F0F7
:101B5000F4FE00289DD0E36902484364403002F05F
:101B6000FBFE96E7040100200C0100201401002078
:101B70001C010020240100202C0100203401002041
:101B80003C0100204401002008B5034B186803689D
:101B90009B6801219847FEE70401002010B50F4B18
:101BA00093F84830BFF35B8F13F0010F08D00B4B55
:101BB000186803689B680321984700B101BE10BDF7
:101BC0000446074802F0B9FE0028F0D063690348D4
:101BD000C364483002F0C0FEE9E700BF0401002002
:101BE0004C0100207047000000224260014A026060
:101BF000017270473C710008704710B582B004460E
:101C000000F0F9FD034620B13BB100F06FFD0190FB
:101C10000CE000F0DDFD0346F6E70D4B18680368A5
:101C20009B6804219847F0E7237A5BB163684BB166
:101C30002368DB6820469847F6E7019800F060FDCE
:101C400002F052FD019800F05BFD002002B010BDD3
:101C500004010020124B1B7EDBB1114B5B7ED3B124
:101C600010B5044600F0CFFDB8B100F0C4FD034646
:101C700038B153B9082300221146204602F044FA35
:101C80000CE000F0A5FD0346F3E72046FFF7B5FFA3
:101C900004E00620704706207047032010BD00BFF7
:101CA000E000002030B583B005460C4600F0A3FDEF
:101CB000034650B16BB100F019FD0190BCB12B6827
:101CC0009B682146284698470AE000F081FD0346BC
:101CD000F0E70A4B186803689B6804219847EAE715
:101CE0000446019800F00CFD204603B030BD0124ED
:101CF000F7E7019800F004FD02F0F6FC0401002073
:101D000038B5184B1B7E33B3164B5B7E2BB30D4699
:101D1000044600F05DFD10BB00F06DFD034668B1A8
:101D200083B129462046FFF7BDFFB8B9FFF702FC93
:101D300090F83430022B0CD000200FE000F048FD6A
:101D40000346EDE7092300222946204602F0DCF98C
:101D5000EBE7012002E0062000E0062038BD02206B
:101D6000FCE700BFE000002042684B689A4201D0C7
:101D70000020704710B504698368086989680144C8
:101D8000E01804F035FBB0FA80F0400910BDF8B55A
:101D90000446037813F0020F25D00E46154642691B
:101DA0008A4202D313F0010F1DD1E06818B103F08D
:101DB0000303032B1CD0B00816F0030F00D0013032
:101DC0006F1E38440D4B984215D8800000F024F95E
:101DD000E06007446D423D402561666194F9003042
:101DE00043F00103237000236360A3600120F8BD6A
:101DF00000F016F9DFE702F07BFE00BFFEFFFF1FD9
:101E000010B50446C06820B1237803F00303032B08
:101E10000FD0237813F0020F07D000222261E26076
:101E200062615BB243F00103237000236360A3602F
:101E300010BD00F0F5F8ECE702B9704770B5164632
:101E40001D460B4604460069A1680144184604F08B
:101E5000DEFA2DB163689B1B6360A3681E44A66015
:101E600070BD02B9704770B5164604460069A36894
:101E700065681D44284404F0CAFA6368334463600B
:101E800070BD38B50C4615460969A3681944FFF7BB
:101E9000E8FF63685B1B6360A2682A44A26038BDE8
:101EA00070B504460E46154601222946FFF76FFF1E
:101EB0002069A3682A463146184404F0A8FA6560F0
:101EC00070BDF8B504460D4616461F46037813F05C
:101ED000020F1AD0C06818B103F00303032B0BD014
:101EE0002561E560666066610023A3603FB12378E9
:101EF00003F0FE032370F8BD00F092F8F0E794F9C8
:101F0000003043F001032370F5E7FFF7C9FF002F0E
:101F1000F1D1284600F05CF8EDE770B505460C46B7
:101F20001646037813F0020F1DD00A7812F0020F44
:101F300019D0C06818B103F00303032B1CD0E36869
:101F4000EB6023692B6163696B6163686B60A368F5
:101F5000AB601EB9237813F0010F10D12B7803F07A
:101F6000FE032B7007E02169A368626819442846C4
:101F7000FFF796FF66B170BD00F052F8DFE703F09F
:101F8000FE03237095F9003043F001032B70F2E754
:101F90002046FFF735FFEEE708B500F056F806E0FB
:101FA000B1F1FF3F01D002F09FFB02F0EDF808BD58
:101FB00008B500F0A3F806E0B1F1FF3F01D002F050
:101FC00093FB02F0E1F808BD08B500F03EF808BD4B
:101FD00008B500F093F806E0B1F1FF3F01D002F040
:101FE00083FB02F0D1F808BD08B500F02EF806E03A
:101FF000B1F1FF3F01D002F077FB02F0C5F808BD58
:1020000008B500F07BF806E0B1F1FF3F01D002F027
:102010006BFB02F0B9F808BD08B500F016F808BD72
:1020200008B500F06BF806E0B1F1FF3F01D002F017
:102030005BFB02F0A9F808BD704708B504F0C8F9C9
:1020400008BD08B504F0CCF908BD2DE9F041804683
:10205000274B1B7933B1B8F1000F33D10027384635
:10206000BDE8F08100F092F8F5E7214B5B792BB1E8
:10207000204B186803689B680B2198471C4E01256C
:1020800075711D4C00212046FEF720FE4046FFF7EB
:10209000D4FF074629462046FEF718FE0025757135
:1020A00029462046FEF712FE29462046FEF70EFE80
:1020B000002FD4D10F4B186803689B680F219847F5
:1020C00000B101BE0C4C01212046FEF7FFFD0121AD
:1020D0002046FEF7FBFDC8E700210748FEF7F6FDA6
:1020E00000210548FEF7F2FD02F0FEFAF8E700BF16
:1020F0005401002004010020E0000020F8B505464E
:102100001F4B1B7953B175B31E4C01212046FEF7BE
:10211000DDFD01212046FEF7D9FD02E000F036F892
:10212000F1E7174B5B792BB1174B186803689B6875
:102130000B219847124E01277771124C002120463F
:10214000FEF7C4FD2846FFF77CFF39462046FEF720
:10215000BDFD0025757129462046FEF7B7FD2946CD
:102160002046FEF7B3FDF8BD00210648FEF7AEFDA0
:1021700000210448FEF7AAFD02F0B6FAF8E700BF16
:1021800054010020E000002004010020034B4FF424
:1021900080421A6001221A71704700BF540100206A
:1021A00000234360034B0360914200D911468160D4
:1021B000C260704774710008704730B583B0044640
:1021C0000D4600F018FB034630B14BB100F08EFA1B
:1021D0000190FFF7AFF90AE000F0FAFA0346F4E7DE
:1021E000114B186803689B6804219847EEE7A368C1
:1021F00013B965B9012404E0013BA360002480F811
:102200003440019800F07CFA204603B030BD2368CA
:102210009B682946204698470446F2E7019800F05B
:102220006FFA02F061FA00BF0401002038B51B4BC1
:102230001B7E7BB3194B5B7E73B30C460546B1B96D
:1022400000F0E1FA88B100F0D6FA0346A8B1C3B1B4
:1022500021462846FFF7B1FFE8B9FFF76BF990F880
:102260003430022B14D0002015E0032013E000F0DE
:10227000AFFA0028E7D002200DE000F0A9FA0346EB
:10228000E5E70C2300222146284601F03DFFE3E765
:10229000012000E0062038BD0620FCE7E000002019
:1022A00010B582B0044600F0A6FA034670B18BB1B7
:1022B00000F01CFA0190A368E26893421CD06268A7
:1022C000B2B12368DB68204698470AE000F080FA44
:1022D0000346ECE70C4B186803689B680421984799
:1022E000E6E70446019800F00BFA204602B010BD64
:1022F0000133A3600024F5E70624F3E7019800F01A
:10230000FFF902F0F1F900BF04010020124B1B7E1F
:10231000DBB1114B5B7ED3B110B5044600F073FA0C
:10232000B8B100F068FA034638B153B90D23002262
:102330001146204601F0E8FE0CE000F049FA0346A1
:10234000F3E72046FFF7ACFF04E0062070470620C5
:102350007047032010BD00BFE000002010B5044608
:10236000406808B1836A6360A0600123636121460D
:10237000FFF720F9A1680B7F23730248FEF7F4FBF7
:1023800010BD00BFE000002010B504460D4B0360F7
:1023900083684BB10C4B186803689B6813219847FE
:1023A0002146A068FFF733F9636843B1064B18680C
:1023B00003689B68142198472046FFF793FA20464C
:1023C00010BD00BFB47100080401002070B582B0D8
:1023D00004460E4600F00FFA034630B14BB100F050
:1023E00085F90190FFF7A6F80AE000F0F1F903463D
:1023F000F4E7294B186803689B6804219847EEE7C7
:102400000546A368834209D013B3002E32D10124BC
:10241000019800F075F9204602B070BD002830D058
:102420000BB1237E33B16369FF2B0AD001336361A3
:102430000024EDE7184B186803689B681221984741
:1024400021E0154B186803689B68062198471CE03B
:10245000A060036B33B11B7B237321462846FFF733
:10246000A9F801E0037FF7E701236361002485F801
:102470003440CDE723689B683146204698470446A0
:10248000C6E70624C4E70624C2E70624C0E701988D
:1024900000F036F902F028F90401002038B50446AE
:1024A0000D4600F095F9F0B900F0A5F9034668B1C2
:1024B00083B129462046FFF789FFA8B9FFF73AF80C
:1024C00090F83430022B0CD000200DE000F080F9A1
:1024D0000346EDE70A2300222946204601F014FEB8
:1024E000EBE7012000E0022038BD10B582B00446C1
:1024F00000F081F9034688B1A3B100F0F7F801902C
:10250000264B1B69002B41D0A2689A4211D00624A9
:10251000019800F0F5F8204602B010BD00F058F91F
:102520000346E9E71E4B186803689B680421984737
:10253000E3E76369013B63610BB10024E8E72146EF
:102540001046FFF764F8227BA3681B6B00E01B6951
:102550003BB159680029FAD0097F9142F7D90A4660
:10256000F5E7A1680B7F934206D1636853B12368F6
:10257000DB682046984703E00848FEF7F1FBF4E7E4
:102580000446C5E70023A3601C46C1E70624BFE755
:10259000019800F0B5F802F0A7F800BFE0000020B5
:1025A0000401002010B5044600F012F998B900F0BB
:1025B00022F9034638B153B90B23002211462046B5
:1025C00001F0A2FD08E000F003F90346F3E720461E
:1025D000FFF78BFF00E0022010BD08B5027B4368C7
:1025E0001BB11B7F9A4200D21A4681680B7F9A4228
:1025F00003D001230148FEF79BFC08BDE00000204A
:10260000022A00D0704708B5021D136823B1994211
:1026100002D003F12802F8E70BB18B6A1360FFF7D1
:10262000DCFF08BD10B5044601468068FEF7EFFFE9
:10263000227BA3681B6B00E01B693BB15968002932
:10264000FAD0097F9142F7D90A46F5E7A1680B7FD6
:10265000934206D163684BB12368DB6820469847F4
:1026600010BD01230348FEF763FCF3E70020A060E0
:10267000F6E700BFE000002038B50546FEF77EFF14
:1026800004462846FFF7A9FF204638BD836873B18A
:1026900010B504468B4205D0FEF79CFE2046FFF79E
:1026A0009CFF10BDFFF7BEFF00236361F9E7704791
:1026B00008B500F0C4FA08B500F0C1FA70477047D9
:1026C000012800D070474FF6FF739942FAD1054BAD
:1026D0005B6913F4007F03D00122034B1A60F1E71A
:1026E0000022FAE700ED00E05C010020EFF311802A
:1026F000A02383F31188BFF34F8FBFF36F8F704711
:1027000080F31188BFF34F8FBFF36F8F704798B17D
:102710000C4B1B68B3FBF0F3012B0FD9013BB3F15A
:10272000807F0DD208494B6000238B6007230B602C
:10273000064B18600120704700207047002070474A
:10274000002070474C00002010E000E00000002056
:1027500008B5064BE02283F8222083F8232000F0FE
:10276000ADFC034B1868FFF7D2FF08BD00ED00E099
:1027700000000020044A536843F080535360BFF3C5
:102780004F8FBFF36F8F704700ED00E0014B58682B
:10279000704700BF001000E0014B5860704700BF59
:1027A000001000E040B2002808DB4901C9B200F186
:1027B000604000F5614080F80013704700F00F00A2
:1027C0004901C9B2014B1954704700BF14ED00E034
:1027D000EFF30580003018BF01207047EFF305804C
:1027E0001038704708B5FFF7F9FF10F1050F14BF57
:1027F0000020012008BDEFF3148313F0010F0CBF7C
:10280000012000207047EFF30582A2F110035BB2B4
:10281000C2B113F1050F17D0032A17D9002B0BDB18
:1028200003F1604303F5614393F800034009042872
:1028300094BF00200120704703F00F03044AD05CCE
:102840004009F4E7012070470120704700207047DD
:1028500014ED00E0EFF3148313F0020F0CBF01201E
:1028600000207047EFF30880704780B400AF80F31A
:102870000988BD4680BC7047EFF3148320B943F04C
:10288000010383F31488704723F00103F9E710B5BF
:102890000C462430FFF7E9FF2046FFF7EDFF01F07B
:1028A00035FC10BDBFF34F8F0549CA6802F4E062E2
:1028B000044B1343CB60BFF34F8F00BFFDE700BF56
:1028C00000ED00E00400FA0508B5074B9B7E13B944
:1028D000054BDB6923B1044B012283F8202008BD9E
:1028E000FFF748FFFBE700BFE0000020BFF34F8F7A
:1028F00030BF704710B40C68094B9C420AD1036882
:10290000591AB2EBA10F08D3002901DB002002E025
:10291000012000E0032010BC70470220FBE700BF4D
:10292000C13F2EA508B512B9044B0B6008BD0B467C
:1029300001681846FDF790FEF8E700BFC13F2EA5DD
:1029400010B4016911F0070F04D00B4C24680CB1CE
:10295000043901610169A1F1440404616FF00204CA
:1029600041F8444C01694FF080700864CB63019BCF
:102970008B634A6210BC70475C01002038B5044686
:102980000D460378A3B9212A05D9B2F5FE6F03D904
:102990004FF4FE6200E0222262602A440A4B9A420F
:1029A00004D89000FFF738FBA06003E002F0A0F825
:1029B000521A4260A16801EB8501E160636801EB96
:1029C0008301216138BD00BFFEFFFF1F08B50B4624
:1029D00001681846FDF72CFE08BD08B5FEF7D0FCCF
:1029E00000B908BDFFF7C6FEFBE708B54FF6FF715B
:1029F0000120FFF765FE08BD08B500F09DFB024A07
:102A0000024B9A6008BD00BF0000000800ED00E026
:102A100008B500F053FB08BDBFF34F8F0549CA68E6
:102A200002F4E062044B1343CB60BFF34F8F00BF4F
:102A3000FDE700BF00ED00E00400FA0503E00368D5
:102A40000B60043104309142F9D3704702E0002357
:102A5000036004308842FAD3704738B50D4D0E4BF1
:102A6000ED1AAD10002404E00B4B53F824309847C6
:102A70000134AC42F8DB094D094BED1AAD100024CE
:102A800004E0074B53F8243098470134AC42F8DB9C
:102A900038BD00BFFC010008FC0100080C02000862
:102AA000FC01000810B5064C064BE41AA41004E023
:102AB000013C044B53F824309847002CF8DC10BD3F
:102AC0000C0200080C02000801230360014B0B609C
:102AD000704700BF4000002008B503F073FC582386
:102AE00003604FF0FF3008BD08B503F06BFC5823BE
:102AF00003604FF0FF3008BD08B503F063FC5823B6
:102B000003604FF0FF3008BD08B503F05BFC5823AD
:102B100003604FF0FF3008BD08B503F053FC5823A5
:102B200003604FF0FF3008BD08B503F04BFC58239D
:102B300003604FF0FF3008BD08B503F043FC582395
:102B400003604FF0FF3008BD08B503F03BFC58238D
:102B500003604FF0FF3008BD08B503F033FC582385
:102B600003604FF0FF3008BD08B503F02BFC58237D
:102B70000360002008BD08B503F024FC582303605F
:102B80004FF0FF3008BD08B503F01CFC582303606C
:102B90004FF0FF3008BD08B503F014FC5823036064
:102BA0004FF0FF3008BD08B503F00CFC582303605C
:102BB0004FF0FF3008BD08B503F004FC5823036054
:102BC0004FF0FF3008BD08B503F0FCFB582303604D
:102BD0004FF0FF3008BD08B503F0F4FB5823036045
:102BE0004FF0FF3008BD08B503F0ECFB582303603D
:102BF0004FF0FF3008BD08B503F0E4FB5823036035
:102C00004FF0FF3008BD08B503F0DCFB582303602C
:102C10004FF0FF3008BD08B503F0D4FB5823036024
:102C20004FF0FF3008BD08B503F0CCFB582303601C
:102C30004FF0FF3008BD00BF08B5FFF7EDFE08B547
:102C40000120FFF7F9FF000008B503460C4A12689F
:102C50005AB10B4A1068033323F003030344094AB3
:102C6000934206D8064A136008BD054A064911601A
:102C7000EFE703F0A7FB0C2303604FF0FF30F3E70F
:102C80006C010020007C002090020020074B0022F5
:102C90001A605A609A601A6199691A629A62DA60D7
:102CA0005A61D9695A62DA62704700BF00800840F1
:102CB0004268836803EB0273C268134402691344D9
:102CC000426913448169026802EB4152134404498A
:102CD0000A6822F0714222F47F021A440A607047A7
:102CE000008008400023036043608360C360036189
:102CF000436183617047044A136823F0F07303EB68
:102D000040501060704700BF0080084010B4134A64
:102D100013681349194003684468234484682344B2
:102D2000C46803EB041344692344C4692344446A1C
:102D30002344846A03EB44630B44516821F400315B
:102D4000046A01EB444113605160038B1361438BB0
:102D500093600369936210BC704700BF0080084015
:102D60000300FFF110B4114A536811491940036878
:102D70004468234484682344C46803EB041344690F
:102D80002344C4692344046A03EB8443446A234410
:102D9000846A03EB44630B445360038B5361438B9E
:102DA000D3600369D36210BC704700BF0080084045
:102DB0000300FBF10023036043608360C360036191
:102DC000436103834383C361036243628362704749
:102DD000054B1B6820B923F00103034A13607047B9
:102DE00043F00103F9E700BF00800840054B5B6832
:102DF00020B923F00103034A5360704743F00103F5
:102E0000F9E700BF00800840034A136823F4F87311
:102E100003EB00101060704700800840034A5368BD
:102E200023F4F87303EB00105060704700800840F3
:102E3000014B9862704700BF00800840014BD86288
:102E4000704700BF00800840034A136823F40273F0
:102E5000014419441160704700800840034A5368D8
:102E600023F4027301441944516070470080084004
:102E7000034A136823F0080318441060704700BF2A
:102E800000800840034A536823F008031844506048
:102E9000704700BF00800840034A136823F40073A2
:102EA00018441060704700BF00800840034A536810
:102EB00023F4007318445060704700BF008008403E
:102EC00010B4054C236823F480631A442260206107
:102ED000A16010BC704700BF0080084010B4054CD2
:102EE000636823F480631A4462606061E16010BC2F
:102EF000704700BF00800840014B1861704700BF59
:102F000000800840014B5861704700BF00800840B6
:102F1000014B9860704700BF00800840014BD860AB
:102F2000704700BF00800840024A136843F0020364
:102F30001360704700800840024A536843F0020360
:102F40005360704700800840014B9869704700BF8C
:102F500000800840014BD869704700BF00800840DE
:102F6000024B1A6A586A02EB004070470080084022
:102F7000014B186A704700BF00800840014B586A37
:102F8000704700BF0080084010B50446FFF7E8FF17
:102F9000204201D0012010BD0020FCE7034B1B6A3A
:102FA000034201D001207047002070470080084094
:102FB000034B5B6A034201D0012070470020704739
:102FC00000800840024A136A23F00103136270472D
:102FD00000800840024A536A23F00103536270479D
:102FE00000800840024A136A23F00203136270470C
:102FF00000800840024A536A23F00203536270477C
:103000000080084010B40C4B1B6A80000C4659B17C
:1030100082B21343084A1362536A4CB923EA104040
:10302000054B586210BC704782B223EA0203F1E7F5
:1030300043EA1040F4E700BF00800840054B1B6ADC
:1030400021B923EA8003034A1362704743EA8003ED
:10305000F9E700BF00800840054B5B6A21B923EA0D
:103060008003034A5362704743EA8003F9E700BFD5
:103070000080084010B50446FFF772FF04EA900490
:10308000044201D0012010BD0020FCE7044B1B6A64
:1030900000EA9300184201D00120704700207047D9
:1030A00000800840044B5B6A00EA9300184201D09C
:1030B0000120704700207047008008401A4BDA68F2
:1030C000DB6813F0010F19D1184A174BDB6813F0B6
:1030D000040F05D0144B5B68C3F3032303FB0222E8
:1030E000114BDB68C3F30123012B0DD043B1022B3D
:1030F00014D00F4B49F640421A6070470D4AE4E77E
:103100000B4B0A4A1A607047074BDB68C3F3031383
:103110000133B2FBF3F2064B1A607047044B4FF4D5
:1031200000421A60704700BF0000024000127A009F
:103130004C00002000093D0008B5084B084ADA6140
:10314000DA680022DA6059685A6099689A601969E9
:103150001A6159695A61FFF7B1FF08BD00000240CA
:103160001000000800230363C36243609022826161
:1031700003624362836202224263836383644FF487
:1031800040730363704770B586B004460D4601A8CE
:1031900000F0E6FA019B1D4A926A1D498C422BD031
:1031A0001C498C422CD029688A08B3FBF2F29009A2
:1031B00002F03F029B0002EB8016B3FBF6F35B1AB2
:1031C000DB01B3FBF1F3022B1ED86062A262E06A5E
:1031D000A988EE882A896B8931430A431343034344
:1031E000E362236B23F47F4323F08003AA89134314
:1031F0002363012006B070BD02F00702D340D2E77E
:10320000C2F30222D340CEE70020F3E700000240E1
:1032100000000340008003404FF416530360002376
:103220008380C380038143814FF44073838170475F
:1032300031B9036B23F001031B041B0C03637047BC
:10324000036B43F001030363704722B9836B23EAE6
:10325000010181637047836B194381637047C36BBE
:1032600031EA030301D00020704701207047036C4E
:103270000B4201D10020704701207047436C194375
:103280004164704742EAC102426370472AB9836CC5
:10329000C94389B2194081647047836C19438164C2
:1032A0007047C9B201607047006880B2704731B999
:1032B000C36A43F47F4343F0FE03C3627047C36AAB
:1032C00043F00103C362704730B587B004460D4632
:1032D000042904D0216B2943216307B030BD01A824
:1032E00000F03EFA019B034AA2FB03231B0D23625D
:1032F000F0E700BFC5B3A29131B9036B43F47F433C
:1033000043F0FD0303637047036B43F00203036361
:10331000704783690B4201D100207047012070473C
:103320000B4B9B6A0B4A904205D00B4A904208D047
:10333000074A9362704723F0FF0343F080730B4307
:10334000F6E723F47F4343F0007343EA0123EFE7FA
:103350000000024000000340008003400023C360DF
:10336000036143600360836043618361C3617047AD
:103370002DE9F04F87B0436882680092C2680192DD
:1033800005694269029282690392C26904920F88B8
:103390004FF0011A4FF003094FF001080024059087
:1033A000184607E04FEA48084FEA89094FEA4A0AF7
:1033B00001347F08002F4AD017F0010FF2D06FEAD6
:1033C000080202EA00068B78A34046EA03006FEA8F
:1033D0000906009B06EA030C0B7A4FEA440E03FA37
:1033E0000EF34CEA03030093019B02EA030C8B7A71
:1033F000A3404CEA030301936FEA0A0C0CEA0503AD
:10340000CD7804F1100B05FA0BF51D430B79A340A1
:103410001D43029B0CEA030C4B7903FA0BFB4CEAAD
:103420000B0C91F806B00BFA04FB4CEA0B03029369
:10343000039B1E404B7A03FA0EFE46EA0E030393EB
:10344000049B1A40CB79A34013430493AAE7024696
:103450000598124B98421ED04FF0FF3E02EA0E0331
:103460004360009B03EA0E028260019B03EA0E02A6
:10347000C26005EA0E050561029B03EA0E02426185
:10348000039B03EA0E038361049B03EA0E03C361FB
:1034900007B0BDE8F08F6FF01F0EDFE700000C40B3
:1034A0004FF6FF73038000238370C3700371437171
:1034B0008371C371037243728372704703680B4256
:1034C00001D10020704701207047006870470368F1
:1034D000054A904205D04FF0FF3213401943016076
:1034E00070476FF01F02F8E700000C400368054AC0
:1034F000904205D00022114323EA01010160704788
:103500001F22F8E700000C4010B40368084CA042EA
:1035100008D04FF0FF3423403AB923EA0103036097
:1035200010BC70476FF01F04F5E70B430360F7E72B
:1035300000000C40054B984204D04FF0FF33194077
:10354000016070476FF01F03F9E700BF00000C40F7
:103550000A4A936823F003039360012802D00228EB
:1035600006D07047054A936843F0010393607047A3
:10357000024A936843F003039360704700000240DF
:103580000A4AD36B23F00303D363012802D0022835
:1035900006D07047054AD36B43F00103D3637047ED
:1035A000024AD36B43F00303D363704700800D409E
:1035B000014B1860704700BFD807B043034AD36B74
:1035C00023F07C5343EA0060D063704700800D40D5
:1035D000014B1860704700BFBC07B043034AD36B70
:1035E00023F4F81343EA0040D063704700800D4095
:1035F0000A4AD36823F003031843D060536823F4C6
:10360000706343EA01215160054B1B6823B1054BF0
:1036100001221A6000221A60704700BF00000240B9
:10362000880040428C004042014B1860704700BF48
:1036300088014042014B1860704700BF880040423B
:10364000034AD36823F0F00343EA0010D0607047C8
:1036500000000240034AD36823F440731843D0604B
:10366000704700BF000002400A4A136923F00303B9
:1036700018431061536823F0F00343EA01115160CD
:10368000054B1B6823B1054B01221A6000221A600A
:10369000704700BF0000024080004042840040426A
:1036A000014B1860704700BF08024042014B186090
:1036B000704700BF80004042014B1860704700BF58
:1036C00010024042014B1860704700BF2002404288
:1036D000034A536923F0330318435061704700BF16
:1036E00000000240034A536923F4706343EA002058
:1036F0005061704700000240014B1860704700BFE6
:10370000B4024042034A936923F0F00343EA0010F5
:103710009061704700000240014B1860704700BF85
:1037200024034042034A936923F00F031843906136
:10373000704700BF00000240014B1860704700BF97
:103740002003404229B9054AD36923EA0000D06129
:103750007047024AD3691843D061704700000240A5
:10376000F0B4544BDA68DB6813F0010F18D1524AF9
:10377000504BDB6813F0040F14D04E4B5C68C4F35D
:10378000032404FB02244B4BDB68C3F30123012B0E
:1037900058D04BB1022B65D049F64043036005E099
:1037A000464AE5E71446EEE7434B0360414B19698F
:1037B0001B6913F0010F59D13F4E3E4B1B6913F0AB
:1037C000040F55D03B4B5D68C5F3031505FB06653B
:1037D000384B1B6913F0100F4CD06B084360354B0E
:1037E0009B691B0913F0080F46D003F00703013350
:1037F000012101FA03F33049B1FBF3F3C3602D4912
:10380000896911F0080F39D001F007010131012752
:103810008F402949B1FBF7F101612649496901F05F
:10382000030101292CD011B102292BD122462149B3
:103830004969C1F30111012939D029B3022925D0E1
:103840001A4623E01B4BDB6813F0800F08D0194B9E
:10385000DB68C3F30213013324FA03F30360A5E723
:103860002346FBE74FF4004303609FE7134EA4E7B2
:103870003546ADE72B46B1E70F4BBFE70E49CBE727
:103880003246D4E72A46D2E74FF40042094B5B693F
:103890001B0A13F0080F07D003F0070301330121BF
:1038A00001FA03F3B2FBF3F28260F0BC704749F611
:1038B0004042EBE70000024000127A0000093D00A0
:1038C00000F0E003202B0AD0074BDB6B00F01F0059
:1038D00023FA00F010F0010F04D100207047034BD1
:1038E0001B68F3E70120704700800D400000024094
:1038F00000B583B0002301932220FFF7E1FF019B75
:1039000001330193019BB3F5C06F01D20028F3D0BE
:103910002220FFF7D5FF18B9002003B05DF804FBA3
:103920000120FAE700B583B0002301930D20FFF7D3
:10393000C7FF019B01330193019BB3F5C06F01D217
:103940000028F3D00D20FFF7BBFF18B9002003B00B
:103950005DF804FB0120FAE700B583B00023019372
:103960001720FFF7ADFF019B01330193019BB3F5D6
:10397000C06F01D20028F3D01720FFF7A1FF18B9BC
:10398000002003B05DF804FB0120FAE708B5012030
:10399000FFF70EFEFFF7E0FF0020FFF75BFE084B8E
:1039A000DA680022DA6059685A6099689A60196981
:1039B0001A6159695A6199699A61024ADA6108BDC6
:1039C000000002401000000808B5FFF7DFFF0121EA
:1039D0004FF00060FFF7B6FE044BDA6B42F4810251
:1039E000DA63DA6B02F48102DA6308BD00800D400D
:1039F00000B583B0002301931520FFF761FF019B01
:103A000001330193019BB3F5C06F01D20028F3D0BD
:103A10001520FFF755FF18B9002003B05DF804FB2F
:103A20000120FAE700B583B0002301932120FFF7BE
:103A300047FF019B01330193019BB3F5C06F01D296
:103A40000028F3D02120FFF73BFF18B9002003B076
:103A50005DF804FB0120FAE700B583B00023019371
:103A60002020FFF72DFF019B01330193019BB3F54C
:103A7000C06F01D20028F3D02020FFF721FF18B932
:103A8000002003B05DF804FB0120FAE70023C360C7
:103A9000036043608360036243628362C3620363C3
:103AA00043638363C363036643668366C3660361DC
:103AB00043618361C361036743678367C3670364CB
:103AC00043648364C364036543658365C36570476A
:103AD0000B8803604B8843608B888360CB880A899E
:103AE00013444A8913448A891344CA891344C3601E
:103AF0000A8A4B8A03EB02138A8A1344CA8A134444
:103B0000036570470023038043808380C380038163
:103B100043818381C381038243828382C38270474E
:103B2000C36819B923F00103C360704743F0010370
:103B3000FAE7016070474160704781607047C36871
:103B400023F002031A44C26081607047006880B2AB
:103B50007047C36823F470631944C1607047C36839
:103B600023F030031944C1607047C36823F0C003D9
:103B70001944C1607047C36823F008031944C16049
:103B8000704710B4046D24F0FE040A4402EB0313E2
:103B90002344036510BC7047036D23F0F00303EB6F
:103BA000011101657047036D23F00C031944016591
:103BB0007047036D23F00203194401657047036DDC
:103BC00023F00103194401657047C06810F0080034
:103BD00000D170470820FCE7C36813F0040F01D040
:103BE000012070470020704710B44B88CA881344E6
:103BF0000A8913444A8913448A8903EB8213CA89C8
:103C000013440A8A13448A880AB103F500530A88C8
:103C100000F1200444F822304B8ACC8A2344898A5C
:103C200001B10433603040F8223010BC70470023EB
:103C3000038043808380C380038143818381C38168
:103C4000038243828382C3827047103040F8212070
:103C50007047703040F82120704730B400F16005A3
:103C600055F8214024F00804234445F82130103051
:103C700040F8212030BC704730B400F1600555F8A1
:103C8000214024F00804234445F82130703040F8E6
:103C9000212030BC7047103050F8210080B27047AE
:103CA000703050F8210080B27047203050F8213039
:103CB00022B923F4807340F82130704743F48073B5
:103CC000F9E7203050F8213023F400531A4440F82B
:103CD00021207047203050F8213023F480531A44BB
:103CE00040F821207047203050F8213023F46063E1
:103CF0001A4440F821207047203050F8213023F03A
:103D0000C00303EB821240F821207047203050F8A6
:103D1000213023F030031A4440F82120704720302E
:103D200050F8213023F00F031A4440F82120704747
:103D3000203050F8213013F4804F01D0012070471B
:103D400000207047603050F8213023F003031A44FC
:103D500040F821207047603050F8213022B923F01C
:103D6000040340F82130704743F00403F9E710B42E
:103D70004A888B889B0003EB0213CA8813440A8984
:103D800003EB02334A8903EB82238A8903EB022384
:103D90000A8800F1300444F82230CC890B8A03EB06
:103DA0000423498A0B44403040F8223010BC70474D
:103DB000002343808380C380038143818381C38147
:103DC00003824382704730B4303050F8214024F0F1
:103DD0001F049200029D02EB05121A44224440F88F
:103DE000212030BC7047303050F8213023F00C03D4
:103DF00003EB820240F821207047303050F8213028
:103E000023F003031A4440F821207047303050F863
:103E1000213023F0100303EB021240F821207047F9
:103E200030B4303050F8214024F4F8549202029D0E
:103E300002EB053202EB0322224440F8212030BC81
:103E40007047303050F8213023F4406303EB822276
:103E500040F821207047303050F8213023F440736F
:103E600003EB022240F821207047303050F8213017
:103E700023F4805303EB023240F82120704703EB18
:103E80000223009A1344403040F821307047406DBF
:103E90007047436D0B4201D00120704700207047EE
:103EA000436D23EA010141657047C36D1AB923EAE6
:103EB0000103C36570470B43FBE7836D1AB923EA1F
:103EC0000103836570470B43FBE7436D826D13402D
:103ED0000B4201D00120704700207047104B5B6AF5
:103EE000104A904208D0104A90420BD00F4A90429C
:103EF0000FD00B4A5362704723F0FF030B4343F08C
:103F00008073F6E723F47F4343EA012343F0007311
:103F1000EFE723F47F0343EA014343F08063E8E7DC
:103F200000000240000007400080074000000840F9
:103F3000024B00225A651A65704700BF00000F400F
:103F4000036842681343027A43EA0232437A817A71
:103F500043EA0113C17A43EA0123017B43EA0133B7
:103F6000417B43EA0143817B43EA0153C17B43EA3E
:103F7000016302490B654A65704700BF00000F40AE
:103F8000002303604360037243728372C37203733E
:103F900043738373C3737047A0B10F4AB2FBF0F24F
:103FA0008A4210D301FB00F101F5742101F23F2197
:103FB0000A48A0FB0131880C122807D8022808D92A
:103FC0000338704770474FF0FF3070474FF0FF30B5
:103FD00070470020704700BF80A8120183DE1B439A
:103FE00088B10C4AB2FBF0F28A420DD301FB00F11A
:103FF00001F5742101F23F210748A0FB0131880C33
:104000000F2804D8704770474FF0FF3070474FF0CB
:10401000FF30F7E7C0E1E40083DE1B43044B5B6D38
:1040200013F0800F01D0012070470020704700BFBF
:1040300000000F4000000000000000000000000031
:1040400000B51EF0040F06BFEFF308800430EFF355
:104050000980D0F818E01EF802ECBEF1020F20DA59
:10406000DFE80EF0060A00BFAFF30080AFF3008078
:1040700001BC6FF0020E70470FC8DFF828E05EF851
:1040800004CB63450DDA5EF823309847009911F0B0
:10409000040F07BFEFF308814860EFF30981086060
:1040A00000BD04BE0400002000000000000000006D
:1040B0001EF0040F0CBFEFF30880EFF30980FDF74B
:1040C000A9FC704700000000000000000000000094
:1040D000F0B4EFF30880416911F0040F0CBFEFF367
:1040E0000880EFF30980846905467646FDF756FDA2
:1040F000B646044A136804F10204AC611360F0BCD4
:104100007047000028ED00E001DF704700DF7047D6
:10411000EFF3098020E9F00F40F804EDFCF713FB02
:1041200050F804EBB0E8F00F80F30988704700BF47
:104130000378472B17D143784E2B14D18378552B16
:1041400011D1C378432B0ED10379432B0BD1437983
:104150002B2B08D183792B2B05D1C07901288CBF5B
:104160000020012070470020704710B5044648B178
:1041700000F091FB2046FFF7DBFF18B154F8140C58
:1041800000F064FC00F07EFC38B50246FFF7D0FF7B
:1041900040B1002552F8184C104600F07CFB25B1C8
:1041A00000F092FC04460125F6E7204600F06FFC83
:1041B000002370B5A0EBC006C0EBC00210F8015B95
:1041C000941905F07F02A24013432A06F4D40B6031
:1041D00070BD00231A4630B510F8014B04F07F057E
:1041E00095402B43250602F10702F5D41F2A06D875
:1041F000640642BF4FF0FF3404FA02F213430B602F
:1042000030BD5028F7B505460E4614461F4607D167
:10421000D01C20F0030050F8043B3B6003B0F0BD1D
:1042200000F00F030C2B2ED8DFE803F025071D2527
:10423000292D2D2D2D182125290001A92046FFF714
:10424000B7FF019B002BE8D005F07002102A08BFD1
:1042500026462A06334448BF1B68DEE701A92046EC
:10426000FFF7B7FFEDE7204630F8023BEAE72046CC
:1042700030F9023BE6E7204650F8043BE2E72046EF
:1042800050F8083BDEE7FEF7DAFC1FB503AB0093FE
:1042900000230A46194601F0C3FA039805B05DF8F9
:1042A00004FB00F07000202808B510D004D8C0B17D
:1042B000102816D0FEF7C3FC40280DD0502810D08F
:1042C0003028F7D1BDE80840084602F065B8084636
:1042D000BDE8084002F064B80846BDE8084002F0B6
:1042E0004BB8002008BDFF2970B50C4615461E4688
:1042F0000BD001462046FFF7D4FF014633462A463D
:104300002046BDE87040FFF77CBF0021F6E773B59B
:104310000E461446054608B102F02EF820603178AA
:10432000721CFF291CD0231D2846FFF7DCFF024624
:104330001378501CFF2B237514D0102301A923756B
:10434000FFF736FF019B0344E360037801A963751F
:104350000130FFF72DFF019B0344236102B070BDC4
:104360006060E5E70023EFE700232DE9F04F91B00F
:10437000049300F00303012B07460C46164611D0A8
:1043800003D3022B03D0FEF75AFC02071AD531469D
:10439000204601F0DBFF18B1092011B0BDE8F08F15
:1043A0000820FAE700F0080505F0FF0875BBD1F812
:1043B000209010460D21FFF768FF814540F04581B0
:1043C000062500E0012510AB43F82C4D0093002397
:1043D00007F008073D430C221946304601F042FA27
:1043E000062D40F03E81D4E90A98276B002F0CBFC0
:1043F0004FF0010A4FF0030A15F0080500F0C780DE
:10440000BAF1010F40F0BE8000F03CFB0225DAE774
:1044100000203BE1079A1344BB4240F23F81089FD2
:104420000FB10B9B1F44099810B10E9B0138184423
:10443000002FACD0002800F0048115F0080302938F
:1044400034D0472323704E2363705523A370432336
:10445000E370462323714F2363715223A37100231A
:10446000E3714FF0000A6FF0030B07A9FFF7B1FEED
:1044700008A90390FFF7ADFE0799002967D03EDD3C
:104480009DF83C00FF2834D000F00703042B3FF6D2
:104490007AAF01A252F823F0BF4400088743000816
:1044A000F9440008BF440008ED440008E379012BFB
:1044B0000CBF54F8203C04F158030493D1E74FF0AB
:1044C000040C0D9A09AB0CFB11220C99FFF799FE15
:1044D000099931B17CB304AB0022204600F028F9E1
:1044E00048B3DDF81C904FF0030A38E04FF0080C99
:1044F000E7E74FF0000CE4E74FF0020CE1E701FBC7
:104500000BB10D9B03EB0109E4B1029AD2B9049BF4
:10451000A9F10409069359F8041F41B106AB002222
:104520004944204600F004F90028F4D0012181F02C
:1045300001010029D5D1089800287ED0039B0344AF
:10454000184692E75958B1FA81F14909F1E74FF05D
:10455000010AF0E74FF000094FF0010A4F46EB0760
:104560007FF54AAFBAF1020F3FF411AF0D2130468B
:10457000049DFFF78AFEC4E90A98C4E90805276389
:1045800006200AE7B9F1000F2ADA00F09DFABAF125
:10459000010F02D12046FFF7E8FDB9F1000F1FDA45
:1045A0000AAA41463046FFF7B2FE9DF83C00FF28BC
:1045B0000FD03146FFF775FE6FF0030309FB03329E
:1045C0000D9B0C901344002253F8221019B10132B4
:1045D000FAE72846F0E7C4E90A200422C4E90C23DC
:1045E00010AB43F81C4D0093002330461A46194681
:1045F00001F038F910AB43F8209D0093002301220D
:104600001946304601F02EF90F213046FFF73DFEE6
:1046100000F0010010AB074343F8247D0093002312
:104620000F221946304601F01DF9BAF1020F02D1EE
:10463000204600F0DBF80720AFE6BAF1000F3FF4A8
:10464000A6AE81464FF0020A89E710AA42F82C4D27
:10465000009243460C224146304645F0020501F0E7
:1046600001F9304601F08EFE804600283FF48FAEFF
:1046700001460AAA3046FFF74AFE81469DF83C00F3
:10468000FF283FF4C5AE3146FFF70BFE0C900F211B
:104690003046FFF7FAFD20F00100471E0E9B4B4508
:1046A0007FF658AF4A4606AB9DF83D100020FFF755
:1046B0001AFE07AB02469DF83D100020FFF713FEDF
:1046C00008AB02469DF83D100020FFF70CFE09A93B
:1046D000FFF76EFD0A9B069A81461344BB427FF6A4
:1046E00099AEDDF83890D9E71EB400F09CF81EBCF6
:1046F00001F056FC0378472B17D143784E2B14D189
:104700008378552B11D1C378432B0ED10379432BDA
:104710000BD143792B2B08D183792B2B05D1C07971
:1047200001288CBF00200120704700207047000046
:104730002DE9F3411E4603780D46472B0246C17909
:1047400013D143784E2B10D18378552B0DD1C378DC
:10475000432B0AD10379462B07D143794F2B04D140
:104760008379522B01D1002930D01046FFF7C2FFC8
:10477000002380F00100C0B2002401944BBB50BB69
:1047800001290ABF52F8203CA2F12003783B0129FD
:104790000CBF52F8202C58321C6801922368204626
:1047A0009B689847C8B10227019B1B6801932B683F
:1047B00001AAD3F81080214601232846C04770B1D2
:1047C000019B3360384602B0BDE8F0810123084602
:1047D000D2E7044CE2E7044CE0E70127E7E70746AD
:1047E000F0E700BFC8720008D072000810B5044698
:1047F00000F074F902462046A4F12001FFF77AFF89
:1048000060B154F8043C0133012B44F8043C03D15B
:10481000936844F8083C9160012010BD9368002B18
:10482000F9D000F02FF910B500F058F98268014670
:104830000AB900F027F902F120042046FFF75AFFD9
:1048400040B1D369013BD36113B99069886093612A
:10485000204610BD8860FBE70378472B17D14378CB
:104860004E2B14D18378552B11D1C378432B0ED105
:104870000379432B0BD143792B2B08D183792B2B35
:1048800005D1C07901288CBF00200120704700208D
:104890007047406A704738B5054600F01FF9014679
:1048A00002682846A5F12004FFF7D6FF30B90AB107
:1048B00000F0E8F80C601446204638BD55F80C3C72
:1048C0002846002BB4BFC3F10103013345F80C3C6B
:1048D0004B68A24203F1FF334B601CBF45F8102C1C
:1048E0000C606C6A00F094FFE6E710B500F0F2F897
:1048F000026801469AB102F120042046FFF7ACFF9E
:1049000028B908602046BDE8104000F083BF536915
:10491000002B05DA013301D110690860536110BD25
:10492000013B002B02D113690B60EBE7F6DA00F0D4
:10493000A9F800207047002070470368DB0706D401
:10494000437803B1FFDE012343701846704700200F
:1049500070470023437070470123036070470B4684
:104960000146184601F020BD7FB500241023CDE993
:104970000234036815469E6900946B468DF8044026
:104980001268B0479DF8043003F00603062B09BFF8
:1049900001202046009B2B6004B070BD009890421F
:1049A0000CBF06200120704710B50446024B03607F
:1049B00000F04EF9204610BD2072000810B50446E4
:1049C000FFF7F2FF2046082100F015F9204610BD40
:1049D0002DE9F041069E9846DDE908349E420746DF
:1049E000154607D1079900F03FF918B1657100200D
:1049F000BDE8F0814146384600F036F90028F6D08F
:104A0000012326602571A371F1E738B515461C46D0
:104A100000F02AF920B10823E36006232560237102
:104A200038BD2DE9F04105460C4616461F4600F0FC
:104A30001BF948B9032F07D8236832462946204678
:104A4000BDE8F0415B691847BDE8F08108B58047D3
:104A5000FEF7F5F80246BFF35B8F054B53E8000FF6
:104A600043E800210029F9D1BFF35B8F704700BFF5
:104A700054000020024B1868BFF35B8F704700BFE3
:104A80005400002008B5FFF7F5FFFFF7DFFF08B57A
:104A90008047FFF7F7FF00000246BFF35B8F054B2F
:104AA00053E8000F43E800210029F9D1BFF35B8FE1
:104AB000704700BF50000020024B1868BFF35B8FA7
:104AC000704700BF5000002008B5FFF7F5FFFFF763
:104AD000DEFF00000048704770010020004870476A
:104AE0007001002008B5FEF7AAF808B5FEF7A7F890
:104AF00008B5FEF7A4F8000010B50446024B0360A9
:104B0000FFF752FF204610BD8072000810B5044622
:104B1000FFF7F2FF20460C2100F06DF8204610BD93
:104B20002DE9F041069E07469642884615461C46EA
:104B30000AD0B8682A46036806961E6A414623468C
:104B4000B446BDE8F0416047194600F08DF80028F2
:104B5000EFD00620BDE8F0812DE9F14F0E46DDE9EA
:104B60000A4ADDE90C85194683461746994600F046
:104B70007BF890B1002E2C602F7109DB3444A045E6
:104B80000CBF06240124AC71002001B0BDE8F08FF9
:104B90000236F9D10123AB71F6E7444506D15146FF
:104BA000584600F061F808B16F71EDE7DBF80800D6
:104BB0003A460368CDE90C85CDE90A4ADC693146FD
:104BC0004B46A44601B0BDE8F04F60472DE9F041E7
:104BD00004460D4616461F46FFF717FF48B9A06862
:104BE0003246036829469C693B46A446BDE8F0412D
:104BF0006047BDE8F081FDF7EBB9704770470000F2
:104C000000487047B772000800487047A472000857
:104C100010B504460421FFF7EEFF204610BD10B585
:104C200004460421FFF7E7FF204610BD704710B58A
:104C300004460421FFF7DFFF204610BD704710B582
:104C400004460421FFF7D7FF204610BD7047704788
:104C50007047002070470020704710B504460821B7
:104C6000FFF7C9FF204610BD814208B50ED040684D
:104C700003782A2B0CD049680B782A2B08BF013106
:104C800001F0DEFCB0FA80F0400908BD0120FCE72D
:104C90000020FAE7FFF7E8BF81F0004102E000BF23
:104CA00083F0004330B54FEA41044FEA430594EAEC
:104CB000050F08BF90EA020F1FBF54EA000C55EA27
:104CC000020C7FEA645C7FEA655C00F0E2804FEAF8
:104CD0005454D4EB5555B8BF6D420CDD2C4480EADA
:104CE000020281EA030382EA000083EA010180EA0A
:104CF000020281EA0303362D88BF30BD11F0004F58
:104D00004FEA01314FF4801C4CEA113102D040428D
:104D100061EB410113F0004F4FEA03334CEA1333C8
:104D200002D0524263EB430394EA050F00F0A780E0
:104D3000A4F10104D5F1200E0DDB02FA0EFC22FADB
:104D400005F2801841F1000103FA0EF2801843FACF
:104D500005F359410EE0A5F120050EF1200E012AC0
:104D600003FA0EFC28BF4CF0020C43FA05F3C018FE
:104D700051EBE37101F0004507D54FF0000EDCF177
:104D8000000C7EEB00006EEB0101B1F5801F1BD320
:104D9000B1F5001F0CD349085FEA30004FEA3C0C24
:104DA00004F101044FEA445212F5800F80F09A801A
:104DB000BCF1004F08BF5FEA500C50F1000041EB1E
:104DC000045141EA050130BD5FEA4C0C404141EB22
:104DD000010111F4801FA4F10104E9D191F0000F49
:104DE00004BF01460020B1FA81F308BF2033A3F1CC
:104DF0000B03B3F120020CDA0C3208DD02F1140CC3
:104E0000C2F10C0201FA0CF021FA02F10CE002F1FD
:104E10001402D8BFC2F1200C01FA02F120FA0CFCF6
:104E2000DCBF41EA0C019040E41AA2BF01EB04513F
:104E3000294330BD6FEA04041F3C1CDA0C340EDC3D
:104E400004F11404C4F1200220FA04F001FA02F380
:104E500040EA030021FA04F345EA030130BDC4F13E
:104E60000C04C4F1200220FA02F001FA04F340EA33
:104E70000300294630BD21FA04F0294630BD94F0E4
:104E8000000F83F4801306BF81F480110134013DCB
:104E90004EE77FEA645C18BF7FEA655C29D094EA3C
:104EA000050F08BF90EA020F05D054EA000C04BFBA
:104EB0001946104630BD91EA030F1EBF00210020A5
:104EC00030BD5FEA545C05D14000494128BF41F044
:104ED000004130BD14F580043CBF01F5801130BDA8
:104EE00001F0004545F0FE4141F470014FF0000033
:104EF00030BD7FEA645C1ABF194610467FEA655CE4
:104F00001CBF0B46024650EA013406BF52EA033585
:104F100091EA030F41F4002130BD00BF90F0000F73
:104F200004BF0021704730B54FF4806404F13204AF
:104F30004FF000054FF0000150E700BF90F0000F68
:104F400004BF0021704730B54FF4806404F132048F
:104F500010F0004548BF40424FF000013EE700BF5F
:104F600042004FEAE2014FEA31014FEA02701FBFEF
:104F700012F07F4393F07F4F81F06051704732F021
:104F80007F4208BF704793F07F4F04BF41F4002178
:104F9000704730B54FF4607401F0004521F00041D6
:104FA0001CE700BF50EA010208BF704730B54FF060
:104FB00000050AE050EA010208BF704730B511F061
:104FC000004502D5404261EB41014FF4806404F199
:104FD00032045FEA915C3FF4D8AE4FF003025FEA1F
:104FE000DC0C18BF03325FEADC0C18BF033202EBA3
:104FF000DC02C2F1200300FA03FC20FA02F001FAFD
:1050000003FE40EA0E0021FA02F11444BDE600BF9F
:1050100070B54FF0FF0C4CF4E06C1CEA11541DBF4E
:105020001CEA135594EA0C0F95EA0C0F00F0DEF819
:105030002C4481EA030621EA4C5123EA4C5350EAFE
:10504000013518BF52EA033541F4801143F480134F
:1050500038D0A0FB02CE4FF00005E1FB02E506F0E0
:105060000042E0FB03E54FF00006E1FB03569CF035
:10507000000F18BF4EF0010EA4F1FF04B6F5007F3B
:1050800064F5407404D25FEA4E0E6D4146EB0606AD
:1050900042EAC62141EA55514FEAC52040EA5E5036
:1050A0004FEACE2EB4F1FD0C88BFBCF5E06F1ED8E0
:1050B000BEF1004F08BF5FEA500E50F1000041EB17
:1050C000045170BD06F0004646EA010140EA0200C4
:1050D00081EA0301B4EB5C04C2BFD4EB0C0541EAE6
:1050E000045170BD41F480114FF0000E013C00F3FB
:1050F000AB8014F1360FDEBF002001F0004170BD1F
:10510000C4F10004203C35DA0C341BDC04F1140437
:10511000C4F1200500FA05F320FA04F001FA05F2C3
:1051200040EA020001F0004221F0004110EBD37090
:1051300021FA04F642EB06015EEA430E08BF20EABC
:10514000D37070BDC4F10C04C4F1200500FA04F35F
:1051500020FA05F001FA04F240EA020001F00041F1
:1051600010EBD37041F100015EEA430E08BF20EA64
:10517000D37070BDC4F1200500FA05F24EEA020EAC
:1051800020FA04F301FA05F243EA020321FA04F0DB
:1051900001F0004121FA04F220EA020000EBD37092
:1051A0005EEA430E08BF20EAD37070BD94F0000F92
:1051B0000FD101F00046400041EB010111F4801FC6
:1051C00008BF013CF7D041EA060195F0000F18BF77
:1051D000704703F00046520043EB030313F4801FB3
:1051E00008BF013DF7D043EA0603704794EA0C0F6D
:1051F0000CEA135518BF95EA0C0F0CD050EA410683
:1052000018BF52EA4306D1D181EA030101F00041FF
:105210004FF0000070BD50EA410606BF1046194627
:1052200052EA430619D094EA0C0F02D150EA013633
:1052300013D195EA0C0F05D152EA03361CBF104674
:1052400019460AD181EA030101F0004141F0FE4113
:1052500041F470014FF0000070BD41F0FE4141F497
:10526000780170BD70B54FF0FF0C4CF4E06C1CEA97
:1052700011541DBF1CEA135594EA0C0F95EA0C0F4C
:1052800000F0A7F8A4EB050481EA030E52EA033507
:105290004FEA013100F088804FEA03334FF0805528
:1052A00045EA131343EA12634FEA022245EA111555
:1052B00045EA10654FEA00260EF000419D4208BF06
:1052C000964244F1FD0404F5407402D25B084FEAB3
:1052D0003202B61A65EB03055B084FEA32024FF45F
:1052E00080104FF4002CB6EB020E75EB030E22BFBC
:1052F000B61A754640EA0C005B084FEA3202B6EB7C
:10530000020E75EB030E22BFB61A754640EA5C002A
:105310005B084FEA3202B6EB020E75EB030E22BFBA
:10532000B61A754640EA9C005B084FEA3202B6EBBB
:10533000020E75EB030E22BFB61A754640EADC007A
:1053400055EA060E18D04FEA051545EA16754FEADC
:1053500006164FEAC30343EA52734FEAC2025FEAFA
:105360001C1CC0D111F4801F0BD141EA00014FF089
:1053700000004FF0004CB6E711F4801F04BF01435A
:105380000020B4F1FD0C88BFBCF5E06F3FF6AFAE76
:10539000B5EB030C04BFB6EB020C5FEA500C50F106
:1053A000000041EB045170BD0EF0004E4EEA113189
:1053B00014EB5C04C2BFD4EB0C0541EA045170BD90
:1053C00041F480114FF0000E013C90E645EA060ED4
:1053D0008DE60CEA135594EA0C0F08BF95EA0C0F02
:1053E0003FF43BAF94EA0C0F0AD150EA01347FF44A
:1053F00034AF95EA0C0F7FF425AF104619462CE721
:1054000095EA0C0F06D152EA03353FF4FDAE104683
:10541000194622E750EA410618BF52EA43067FF4D4
:10542000C5AE50EA41047FF40DAF52EA43057FF464
:10543000EBAE12E74FEA410212F5001215D211D578
:105440006FF47873B3EB625212D94FEAC12343F081
:10545000004343EA505311F0004F23FA02F018BF03
:10546000404270474FF00000704750EA013005D1CC
:1054700011F0004008BF6FF0004070474FF000008F
:10548000704700BF03685A004CBF43F0004323F04D
:1054900000431844704700BF61B32DE9F84F01F194
:1054A000FF3A90460646D146002707EB090404EB75
:1054B000D4746410E50071190846FFF7E3FFA245B4
:1054C000834605F10800304409D0FFF7DBFFC345F0
:1054D00000F1FF3005D8404509D2671CE5E7C34518
:1054E00005D9A74202D004F1FF39DEE700210846C2
:1054F000BDE8F88F08467047012807D0022807D07A
:10550000044B00280CBF1846002070470248704723
:1055100002487047F55B0008F95B0008FD5B000876
:1055200030B5264B83B004468D1E4BB301A92846E7
:10553000AFF30080F0B101992A46FFF7ADFF0146B5
:10554000C0B1FFF79FFF4B68A064012B2FD0002B49
:1055500001F1040027DBFFF795FF0023C4E91303E3
:105560000368002B13DBFFF78DFF00232061184633
:1055700003B030BD092300221846226103B030BDBC
:105580000F4B10491846C91AC9100191D4E7C3F34B
:105590000360FFF7B1FF002814BF00230923206137
:1055A000184603B030BD0123C4E91303D8E705232F
:1055B00000221846226103B030BD00BF0000000089
:1055C0001C790008F47D0008036810B5DA0704466A
:1055D00006D49B0700F1480009D500F067FC23685A
:1055E000590709D51A070ED5DB0613D510BD00F0F3
:1055F00055FC23685907F5D404F1D00000F05EFC97
:1056000023681A07F0D404F5A87000F05FFC236843
:10561000DB06EBD404F5E870BDE8104000F09ABC5E
:10562000036803B103441846704700BF0920704760
:10563000704700BF70B504460D4608E02A6C236928
:10564000626121462A4601209847082808D1296C22
:105650002046FFF765FF06460028EFD0FDF7EFFA7A
:105660000728FBD13046296CFFF7E2FF281D00F028
:1056700009FC00BF2DE9F04705464FF0000CADF5E1
:10568000727D03AC0E1D17460FCE0FC40FCE0FC494
:105690000FCE0FC496E80F00D5F80C80D5F81890FF
:1056A00084E80F0002ACC4F800C021E0236C4FF482
:1056B000F0726B6121467AA800F0A9FE2B697AAAE4
:1056C000294630469847889BCDE900498246636465
:1056D00031462B462A460120C0470746F8B94FF409
:1056E000F0727AA9204600F092FEBAF1080F1CD1A0
:1056F000216C2846FFF714FF002F08BF0926074634
:1057000018BF0A260028D1D0A36B46F01001CDE9BE
:1057100000492A46636401202B46C04700B109278F
:1057200038460DF5727DBDE8F087BAF1070FF6D166
:105730003846216CFFF77CFF03A800F0A3FB00BFF5
:10574000406C70474FF0FF3CF0B5CB6BF9B00B6489
:105750000D1D01AC0F4606460FCD0FC40FCD0FC473
:105760000FCD0FC495E80F0084E80F00CDF800C0FE
:1057700006E033696A46314698470828044608D14E
:1057800010993046FFF7CCFE0028F2D0092079B0FE
:10579000F0BD6846FFF718FF062CF7D139463046B2
:1057A000FFF748FF30B4DD6BC160826119461D64AC
:1057B000002230BC5EE700BF70B54369C6680B6469
:1057C000BEB903690A4604460D46014602209847C1
:1057D000072807D0082803D129462046FFF72AFFCB
:1057E000FDF72DFA3046296CFFF722FF281D00F047
:1057F00049FB0122FFF73EFFFDF721FAC2682AB1FB
:1058000010B4CC6B00220C6410BC33E79AE700BFE5
:10581000704700BF836813B10146012018477047E5
:10582000042907D8DFE801F00308060808000BB9CF
:105830000F2A03D9022070470120704700EB820035
:1058400042681846009B1A60704700BF002310B5DD
:1058500084B003AC0A4600941946FFF7E1FF0398B1
:1058600004B010BD042907D8DFE801F003080608DA
:1058700008000BB90F2A03D9022070470120704796
:10588000009900EB8202096818465160704700BF1A
:10589000002310B584B004AC44F8042D00940A46EB
:1058A0001946FFF7DFFF04B010BD00BF4FF0FF3C0B
:1058B000F0B5D36BADF50F7D1364151D17AC07461E
:1058C0000E460FCD0FC40FCD0FC40FCD0FC495E8FA
:1058D0000F0084E80F00CDF858C012E00C2116A884
:1058E0006A46FFF7D5FF314616A8B84778B9049B3A
:1058F00016AA6946082098470528044608D00928B2
:1059000005D026996846FFF70BFE0028E6D009244B
:1059100016A8FFF759FE20460DF50F7DF0BD00BF1C
:105920002DE9F04F0D46C96C89B00C1D164600F0EC
:10593000030B0A681F460694002B68D00221130C43
:105940008DF81D301204DBB204EB830405928DF850
:105950001C102B6DBBF1020F08BFAC6B13F00103E1
:1059600046D1019300F008030093D4F80090B9F1F8
:10597000000F00F0F380022F45D0B4F80090B4F887
:1059800002800434AB6C28F0010A0F2130469A449F
:10599000FFF75CFF824534D829F00103534483426A
:1059A00094BF002001204FEA480808F0020809F0DF
:1059B000010948EA0908B8F1010F3AD031D3B8F12A
:1059C000020F1AD1236823F0004ABBF1000F66D101
:1059D00030B1009A002A6CD0BAF1000F00F090802C
:1059E000002B00DA04340AF1010304EB8304BCE762
:1059F000304605A900F048FB78B1092009B0BDE8A0
:105A0000F08F0020CFE7D4F804800834BAE70323EE
:105A100012020592ADF81C309BE7082009B0BDE8E2
:105A2000F08FBBF1000F02D0002840F0B4800434A6
:105A30009BE7BBF1000F18D1A8B1D4E90023991C52
:105A40004FEAD272D9D005F158010133049100F028
:105A5000B580201DFFF7E4FD04AB01462846FEF7A4
:105A600067FE002867D108347FE70D213046D5F85E
:105A70002080FFF7EBFE8045F5D1AB6A9C42F2D166
:105A80002046FFF7FFFC0F2102463046FFF700FFDC
:105A900030462A460021FFF7FBFE0720AEE70D2126
:105AA0003046D5F82080FFF7D1FE804532D02368FC
:105AB00096E7BAF1000F23D005F1580304F104086A
:105AC000CDF808B0DDF80090A34603971C4602E02D
:105AD0005745B94640D040460494FFF7A1FD04ABBA
